{
  "_format": "hh-sol-artifact-1",
  "contractName": "YourContract",
  "sourceName": "contracts/YourContract.sol",
  "abi": [
    {
      "anonymous": false,
      "inputs": [
        {
          "indexed": true,
          "internalType": "address",
          "name": "owner",
          "type": "address"
        },
        {
          "indexed": false,
          "internalType": "string",
          "name": "institution",
          "type": "string"
        },
        {
          "indexed": false,
          "internalType": "string",
          "name": "degree",
          "type": "string"
        },
        {
          "indexed": false,
          "internalType": "string",
          "name": "major",
          "type": "string"
        },
        {
          "indexed": false,
          "internalType": "uint256",
          "name": "graduationYear",
          "type": "uint256"
        }
      ],
      "name": "DiplomaAdded",
      "type": "event"
    },
    {
      "inputs": [
        {
          "internalType": "string",
          "name": "_institution",
          "type": "string"
        },
        {
          "internalType": "string",
          "name": "_degree",
          "type": "string"
        },
        {
          "internalType": "string",
          "name": "_major",
          "type": "string"
        },
        {
          "internalType": "uint256",
          "name": "_graduationYear",
          "type": "uint256"
        }
      ],
      "name": "addDiploma",
      "outputs": [],
      "stateMutability": "nonpayable",
      "type": "function"
    },
    {
      "inputs": [
        {
          "internalType": "address",
          "name": "_owner",
          "type": "address"
        }
      ],
      "name": "getDiplomas",
      "outputs": [
        {
          "components": [
            {
              "internalType": "string",
              "name": "institution",
              "type": "string"
            },
            {
              "internalType": "string",
              "name": "degree",
              "type": "string"
            },
            {
              "internalType": "string",
              "name": "major",
              "type": "string"
            },
            {
              "internalType": "uint256",
              "name": "graduationYear",
              "type": "uint256"
            }
          ],
          "internalType": "struct YourContract.Diploma[]",
          "name": "",
          "type": "tuple[]"
        }
      ],
      "stateMutability": "view",
      "type": "function"
    },
    {
      "inputs": [
        {
          "internalType": "address",
          "name": "_owner",
          "type": "address"
        },
        {
          "internalType": "string",
          "name": "_institution",
          "type": "string"
        },
        {
          "internalType": "string",
          "name": "_degree",
          "type": "string"
        },
        {
          "internalType": "string",
          "name": "_major",
          "type": "string"
        },
        {
          "internalType": "uint256",
          "name": "_graduationYear",
          "type": "uint256"
        }
      ],
      "name": "hasDiploma",
      "outputs": [
        {
          "internalType": "bool",
          "name": "",
          "type": "bool"
        }
      ],
      "stateMutability": "view",
      "type": "function"
    }
  ],
  "bytecode": "0x608060405234801561001057600080fd5b50610d5e806100206000396000f3fe608060405234801561001057600080fd5b50600436106100415760003560e01c80630c17d8f8146100465780630ea98fcd1461005b578063243d1ec814610083575b600080fd5b610059610054366004610857565b6100a3565b005b61006e610069366004610916565b61021e565b60405190151581526020015b60405180910390f35b6100966100913660046109c8565b6105db565b60405161007a9190610a3a565b3360009081526020818152604091829020825160a0601f8b0184900490930281018301909352608083018981529092918291908b908b9081908501838280828437600092019190915250505090825250604080516020601f8a0181900481028201810190925288815291810191908990899081908401838280828437600092019190915250505090825250604080516020601f8801819004810282018101909252868152918101919087908790819084018382808284376000920182905250938552505050602091820185905283546001810185559381522081519192600402019081906101919082610b85565b50602082015160018201906101a69082610b85565b50604082015160028201906101bb9082610b85565b50606082015181600301555050336001600160a01b03167f366bc06a270ad6c0afefff91087851348158dc449fc920e81f3b0c7252c9ac5e8888888888888860405161020d9796959493929190610c6e565b60405180910390a250505050505050565b6001600160a01b03881660009081526020818152604080832080548251818502810185019093528083528493849084015b82821015610441578382906000526020600020906004020160405180608001604052908160008201805461028290610afc565b80601f01602080910402602001604051908101604052809291908181526020018280546102ae90610afc565b80156102fb5780601f106102d0576101008083540402835291602001916102fb565b820191906000526020600020905b8154815290600101906020018083116102de57829003601f168201915b5050505050815260200160018201805461031490610afc565b80601f016020809104026020016040519081016040528092919081815260200182805461034090610afc565b801561038d5780601f106103625761010080835404028352916020019161038d565b820191906000526020600020905b81548152906001019060200180831161037057829003601f168201915b505050505081526020016002820180546103a690610afc565b80601f01602080910402602001604051908101604052809291908181526020018280546103d290610afc565b801561041f5780601f106103f45761010080835404028352916020019161041f565b820191906000526020600020905b81548152906001019060200180831161040257829003601f168201915b505050505081526020016003820154815250508152602001906001019061024f565b5050505090506000898960405160200161045c929190610cbf565b60405160208183030381529060405280519060200120905060008888604051602001610489929190610cbf565b604051602081830303815290604052805190602001209050600087876040516020016104b6929190610cbf565b60405160208183030381529060405280519060200120905060005b84518110156105c55760008582815181106104ee576104ee610ccf565b6020026020010151905084816000015160405160200161050e9190610ce5565b6040516020818303038152906040528051906020012014801561055a57508381602001516040516020016105429190610ce5565b60405160208183030381529060405280519060200120145b801561058f57508281604001516040516020016105779190610ce5565b60405160208183030381529060405280519060200120145b801561059e5750878160600151145b156105b257600196505050505050506105cf565b50806105bd81610d01565b9150506104d1565b5060009450505050505b98975050505050505050565b6001600160a01b038116600090815260208181526040808320805482518185028101850190935280835260609492939192909184015b82821015610803578382906000526020600020906004020160405180608001604052908160008201805461064490610afc565b80601f016020809104026020016040519081016040528092919081815260200182805461067090610afc565b80156106bd5780601f10610692576101008083540402835291602001916106bd565b820191906000526020600020905b8154815290600101906020018083116106a057829003601f168201915b505050505081526020016001820180546106d690610afc565b80601f016020809104026020016040519081016040528092919081815260200182805461070290610afc565b801561074f5780601f106107245761010080835404028352916020019161074f565b820191906000526020600020905b81548152906001019060200180831161073257829003601f168201915b5050505050815260200160028201805461076890610afc565b80601f016020809104026020016040519081016040528092919081815260200182805461079490610afc565b80156107e15780601f106107b6576101008083540402835291602001916107e1565b820191906000526020600020905b8154815290600101906020018083116107c457829003601f168201915b5050505050815260200160038201548152505081526020019060010190610611565b505050509050919050565b60008083601f84011261082057600080fd5b50813567ffffffffffffffff81111561083857600080fd5b60208301915083602082850101111561085057600080fd5b9250929050565b60008060008060008060006080888a03121561087257600080fd5b873567ffffffffffffffff8082111561088a57600080fd5b6108968b838c0161080e565b909950975060208a01359150808211156108af57600080fd5b6108bb8b838c0161080e565b909750955060408a01359150808211156108d457600080fd5b506108e18a828b0161080e565b989b979a50959894979596606090950135949350505050565b80356001600160a01b038116811461091157600080fd5b919050565b60008060008060008060008060a0898b03121561093257600080fd5b61093b896108fa565b9750602089013567ffffffffffffffff8082111561095857600080fd5b6109648c838d0161080e565b909950975060408b013591508082111561097d57600080fd5b6109898c838d0161080e565b909750955060608b01359150808211156109a257600080fd5b506109af8b828c0161080e565b999c989b50969995989497949560800135949350505050565b6000602082840312156109da57600080fd5b6109e3826108fa565b9392505050565b60005b83811015610a055781810151838201526020016109ed565b50506000910152565b60008151808452610a268160208601602086016109ea565b601f01601f19169290920160200192915050565b60006020808301818452808551808352604092508286019150828160051b87010184880160005b83811015610ad857603f19898403018552815160808151818652610a8782870182610a0e565b915050888201518582038a870152610a9f8282610a0e565b9150508782015185820389870152610ab78282610a0e565b60609384015196909301959095525094870194925090860190600101610a61565b509098975050505050505050565b634e487b7160e01b600052604160045260246000fd5b600181811c90821680610b1057607f821691505b602082108103610b3057634e487b7160e01b600052602260045260246000fd5b50919050565b601f821115610b8057600081815260208120601f850160051c81016020861015610b5d5750805b601f850160051c820191505b81811015610b7c57828155600101610b69565b5050505b505050565b815167ffffffffffffffff811115610b9f57610b9f610ae6565b610bb381610bad8454610afc565b84610b36565b602080601f831160018114610be85760008415610bd05750858301515b600019600386901b1c1916600185901b178555610b7c565b600085815260208120601f198616915b82811015610c1757888601518255948401946001909101908401610bf8565b5085821015610c355787850151600019600388901b60f8161c191681555b5050505050600190811b01905550565b81835281816020850137506000828201602090810191909152601f909101601f19169091010190565b608081526000610c8260808301898b610c45565b8281036020840152610c9581888a610c45565b90508281036040840152610caa818688610c45565b91505082606083015298975050505050505050565b8183823760009101908152919050565b634e487b7160e01b600052603260045260246000fd5b60008251610cf78184602087016109ea565b9190910192915050565b600060018201610d2157634e487b7160e01b600052601160045260246000fd5b506001019056fea2646970667358221220187044da52a4bec7b610e0cbf06757c524cbf8e102dc6d19c4e35bb2846c623664736f6c63430008140033",
  "linkReferences": {},
  "deployedLinkReferences": {}
}